:0300000002007586
:10000B0002000EC28D758CCF758A2B0A208005BA23
:10001B000A55800B208105BA144D8003BA2848E598
:10002B00B0BC0043801F2320820EBF0003BE000F15
:10003B0045B07E017F008007BE010455B07E00F9FC
:10004B00F5B07A0032BBFFDE0320820EBF0003BE89
:10005B00000F45B07E017F008007BE010455B07EC6
:10006B0000F9F5B07A00327D003279007A007B001E
:10007B007C007E007F0089B0758CCF758A2B7589CB
:10008B0001D2A9D2AFD28C74FEF5A0E5A0B4FE1DAF
:10009B0074FDF5A0E5A0B4FD3774FBF5A0E5A0B4A5
:1000AB00FB5174F7F5A0E5A0B4F76B80DA7F01B4D0
:1000BB00EE08BD00050D790180BCB4DE08BD00055E
:1000CB000D790380B1B4BEAEBD00AB0D790780A630
:1000DB007F01B4ED08BD00050D790F8099B4DD08E3
:1000EB00BD00050D791F808EB4BD06BD00030D79D3
:1000FB003F80837F01B4EB08BD00050D797F018143
:10010B00B4DB08BD00050D79FF0181B4BB06BD0052
:10011B00030D79FF0181B4D708BD00050D790001EE
:10012B0081B4E70ABD00070DEBF4FBE40181B4B722
:0D013B0008BD00050DECF4FCE4018180FE20
:00000001FF
