:0D25710048656C6C6F20576F726C640A0037
:042563008F828E8352
:09256700AF84758408EDF08F8447
:012570002248
:1024ED00750801758DFD7589207588407598505357
:1024FD00877FD299D298C2AF7BFF7A25797112214D
:10250D0065E50825E0F5087003750801AD087F073E
:10251D007E00122563E4F509F50AD3E50A9400E57A
:0F252D0009947D50D3050AE50A70EF050980EB8C
:0300000002257E58
:0321000002257E37
:0C257E00787FE4F6D8FD7581210224ED81
:10210300E51A240EF8E6051A22780B300702780E3A
:10211300E475F0011224B702245F2000EB7F2ED276
:10212300008018EF540F2490D43440D4FF30040BB4
:10213300EF24BFB41A0050032461FFE51B600215AE
:102143001B051EE51E7002051D30070D780BE47597
:10215300F0011224B7EF0224A502253C7403D20731
:102163008003E4C207F51A8B0B8A0C890DE4F51B77
:10217300F51DF51EE51B60077F2012213E80F575D6
:102183001CFFC201C200C202C203C205C206C208CA
:1021930012210CFF700D3007057F0012214FAF1E77
:1021A300AE1D22B4255FC2D5C20412210CFF24D078
:1021B300B40A00501A75F00A781B30D50508B6FF2B
:1021C3000106C6A426F620D5047002D20380D924C2
:1021D300CFB41A00EF5004C2E5D20402234FD20158
:1021E30080C6D20080C0D20280BCD2D580BAD205CC
:1021F30080B47F2012213E2002077401B51B0040EA
:10220300F1122103FF12213E022177D208D2068068
:1022130095122103FB122103FA122103F94A4B7091
:102223000679207A247BFF20022EE51B602A7E009C
:102233008E8275830012247860060EEE651C70F0A2
:10224300C2D5EBC0E0EAC0E0E9C0E0EE122396D0CD
:10225300E0F9D0E0FAD0E0FB12245FFF60AAEBC004
:10226300E0EAC0E0E9C0E012213ED0E02401F9D069
:10227300E03400FAD0E0FBE51C0460DCD51CD98017
:10228300877BFF7A237992D202809C79108002792E
:1022930008C206C2088008D2D5790A8004790AC226
:1022A300D5E51C047002F51CE4FAFDFEFF122103C0
:1022B300FC7B08200113122103FD7B1030000A125E
:1022C3002103FE122103FF7B20EC3382D592D550EC
:1022D30013C3E43000069FFFE49EFEE42001039D48
:1022E300FDE49CFCE4CBF8C201EC700CCFCECDCC6A
:1022F300E824F8F870F38017C3EF33FFEE33FEEDF5
:1023030033FDEC33FCEB33FB994002FB0FD8E9EBD5
:10231300300105F8D0E0C448B201C0E00AEC4D4EEC
:102323004F78207B0070C2EAB51C0040BCC0E012AD
:102333002398D0F0D0E0200104C4C0E0C4B201C0AF
:10234300F0122127D0F0D5F0EB0221771224C72217
:102353001453228E5821E54C21E14222924F229AB6
:0F23630044229A4921FA4322A05522844622841B
:102372004522844724405021E92D21ED2E22102BA5
:1023820021F123220E20242E2A21A948000022080E
:102392003F3F3F00790AA2D5200314300509B91046
:1023A200020404B9080104A2D52006025001042047
:1023B20002689202B51B005034C0E07F203003193E
:1023C2007F30A20272067205500F1223EFC202C2C0
:1023D20006C205C2087F30800F300503E9C0E01253
:1023E200213E300503D0E0F9D0E0B51BCC30051713
:1023F2007F30B9100C12213E7F583004077F78805D
:1024020003B9080312213E3002057F2D02213E7FCF
:10241200202008F87F2B2006F322920280CF286E1C
:10242200756C6C29002D50434958D201122103309A
:1024320001F8C201781B30D50108F60221A9122148
:10244200032403B405004001E49024279312212FB2
:0D245200743A12212FD203751B0402228E52
:10245F00BB010689828A83E0225002E722BBFE027B
:09246F00E32289828A83E49322AE
:10247800BB010CE58229F582E5833AF583E0225019
:1024880006E92582F8E622BBFE06E92582F8E22263
:0D249800E58229F582E5833AF583E493227D
:1024A500BB010689828A83F0225002F722BBFE0116
:0224B500F32210
:1024B700FAE6FB0808E6F925F0F618E6CA3AF62226
:1024C700D083D082F8E4937012740193700DA3A3A4
:1024D70093F8740193F5828883E4737402936860B8
:0624E700EFA3A3A380DFB8
:10253C00EFB40A07740D122547740A309811A89944
:10254C00B8130CC2983098FDA899C298B811F630FF
:07255C0099FDC299F59922D7
:00000001FF
:022100060000D7
