:1005CB00202020202053444B2D312E31003230304F
:1005DB003120284329204C4D54204C74640048454D
:0805EB00583230322D3032008D
:1005F30017083031323334353637383941424344C2
:0B060300454661626364656600C1004B
:100100007580FFE4F584F587F588F589F58AF58C27
:10011000F58BF58D7590FFF598F59B75A0FFF5A80B
:10012000F5A975B0FFF5B8F5B975BA5275BB04F508
:10013000C075C4C9F5C6F5C8F5CAF5CBF5CCF5CD83
:10014000F5D2F5D3F5D4F5D875DFDCF5E875EF20F9
:10015000F5F175F220F5F3F5F4F5F875FD04F5F910
:07016000F5FBF5FAF5FC22A6
:0E016700AC847584FF8F828E83EDF08C842231
:10017500AB077F067E00EB4401FD120167EB54FEE1
:10018500FD120167E4FF0FBF00010EBE01F8BF2C91
:02019500F52251
:10019700AD077B087F017E003001047C4080027C34
:0F01A70000EC2D4480FD120167AF031201752299
:1001B600AD077B0C7F017E00120167AF031201754C
:0101C6002216
:1001C7008B278A288929AB27AA28A9291206EC6038
:1001D700130529E5297002052814F91206ECFF1208
:0501E70001B680E222D8
:1001EC00E4F525F526F523F5240524E52470020510
:1001FC0023E524B488F3E523B413EE7526307F0190
:10020C007E00AD26120167AF25120175E4F523F5CA
:10021C00240524E52470020523E524B4D0F3E5235A
:10022C00B407EE7526307F017E00AD26120167AF54
:10023C0025120175E4F523F5240524E52470020547
:10024C0023E524B4F4F3E523B401EE7526307F01E5
:10025C007E00AD26120167AF25120175E4F523F57A
:10026C00240524E52470020523E5246464452370E9
:10027C00F07526387F017E00AD26120167AF25127E
:10028C0001757526087F017E00AD26120167AF252A
:10029C001201757526017F017E00AD26120167AF34
:1002AC0025120175E4F523F5240524E524700205D7
:1002BC0023E5246464452370F07526067F017E00D7
:1002CC00AD26120167AF2512017575260C7F017ED4
:1002DC0000AD26120167AF251201757BFF7A0579F7
:1002EC00CB1201C7E4FFFED2011201977BFF7A0506
:1002FC0079D81201C7E4F523F5247F047E007D0430
:10030C00120167E4F5250525E525B42DF97F047E5A
:10031C0000E4FD120167E4F5250525E525B42DF96A
:10032C000524E52470020523C3E52494F4E5239405
:10033C000140C7E4F523F5240524E52470020523C8
:10034C00E524B4F8F3E523B47FEE75250875260192
:10035C007F017E00AD26120167AF2512017575264F
:10036C000C7F017E00AD26120167AF2512017522AC
:10037C00E4F521F5221201001201EC7FFDC20112FD
:10038C0006D37BFF7A0579E91206AEE4F521F52256
:10039C0012069B50031203BF0522E52270020521B1
:1003AC00C3E5229470E521941740E57F2E12069E3A
:0303BC0080D922C3
:1003BF001206A6EF24C670131203DC50077F2D120E
:0D03CF00069E80057F2B12069EC322D322BE
:1003DC00E4F524F525F526F527F528F529F52CF572
:1003EC002DC3E52C940150421206A68F23E52364FD
:1003FC000D6005E523B40A1912069B50051206A6DA
:10040C0080F67400252DF582E434F0F583E4F08059
:10041C0019052DE52DAE2C7002052C142400F58247
:10042C00EE34F0F583E523F080B7E4F52AF52BF5EF
:10043C002CF52DF523AF2D74002FF582E434F0F557
:10044C0083E0603F74002FF9E434F0FA7B0112056D
:10045C002FAE2B74002EF582E434F0F583EFF0749C
:10046C00002EF582E434F0F583E02523F523052BEB
:10047C00E52B7002052A7402252DF52DE4352CF59B
:10048C002C80B21205264004E5236002D32290F0A2
:10049C0000E0F524A3E0FEA3E0FDEEF526EDF52744
:1004AC00A3E0F525E52514604A24FB604824C060D0
:1004BC004424467063852628852729E4F52CF52DE0
:1004CC00C3E52D9524E52C940050287404252DF5B6
:1004DC0082E434F0F583E0FF0529E529AC287002AD
:1004EC00052814F5828C83EFF0052DE52D7002059F
:1004FC002C80CDC3227F2B12069EE4F52CF52D0506
:10050C002DE52D7002052CE52DB410F3E52CB42748
:0A051C00EEAE26AF271205BBD32276
:09052600A2009201C200A2012210
:10052F00E4F52EF52F7408252EF8E6FF6028120645
:10053F00ECFD3395E0FC7E00EDB50716EEB5041229
:10054F00E52ED3940F400674FA252EF52E852E2F07
:10055F008004052E80CF7408252EF8E67004D20093
:10056F00FF22E4F52E7408252EF8E6FF6031900087
:10057F0001120705FD3395E0FC7E00EDB5071CEE7B
:10058F00B50418E52ED3940F400674FA252EF52ED8
:10059F00E52FC454F0452EF52F8004052E80C67428
:0C05AF0008252EF8E67002D200AF2F22C3
:1005BB008E2E8F2F1201008E838F82E4F580732293
:0300000002060FE6
:06000300758000022003DD
:06000B0075800002200BCD
:06001300758000022013BD
:06001B0075800002201BAD
:060023007580000220239D
:06002B0075800002202B8D
:060033007580000220337D
:06003B0075800002203B6D
:060043007580000220435D
:0C060F00787FE4F6D8FD75818002065665
:03069B00A2982200
:08069E008F99C2993099FD22E9
:0806A6003098FDC298AF9922C3
:1006AE008B238A248925AB23AA24A9251206EC6064
:1006BE00130525E5257002052414F91206ECFF1228
:0506CE00069E80E222FF
:1006D3008F8D438920300105438780800353877FB3
:0906E300438840759850C2AC2216
:10061B0002037CE493A3F8E493A34003F68001F276
:10062B0008DFF48029E493A3F85407240CC8C333E0
:10063B00C4540F4420C8834004F456800146F6DFAF
:10064B00E4800B01020408102040809005F3E47E47
:10065B00019360BCA3FF543F30E509541FFEE493A4
:10066B00A360010ECF54C025E060A840B8E493A36B
:10067B00FAE493A3F8E493A3C8C582C8CAC583CA96
:10068B00F0A3C8C582C8CAC583CADFE9DEE780BE4E
:01060E0000EB
:1006EC00BB010689828A83E0225002E722BBFE020C
:0906FC00E32289828A83E493223F
:10070500BB010CE58229F582E5833AF583E02250A9
:1007150006E92582F8E622BBFE06E92582F8E222F3
:0D072500E58229F582E5833AF583E493220D
:00000001FF
